:020000040800F2
:100000000000022005760008C1740008CF740008C3
:10001000D5740008DB740008E174000800000000DB
:10002000000000000000000000000000E77400086D
:10003000F574000800000000037500081175000841
:100040005576000855760008557600085576000864
:100050005576000855760008557600085576000854
:100060005576000855760008557600085576000844
:100070005576000855760008557600085576000834
:100080005576000855760008557600085576000824
:100090005576000855760008557600085576000814
:1000A0005576000855760008557600085576000804
:1000B0002175000835750008497500085D75000850
:1000C00071750008557600085576000855760008C9
:1000D00055760008857500085576000855760008A5
:1000E00055760008557600085576000855760008C4
:1000F00055760008557600085576000855760008B4
:1001000055760008557600085576000855760008A3
:100110005576000855760008557600085576000893
:100120005576000855760008557600085576000883
:100130005576000800000000000000005576000819
:100140005576000855760008557600085576000863
:100150005576000855760008557600085576000853
:100160005576000855760008557600085576000843
:100170005576000855760008557600080000000006
:10018000000000005576000800000000000000009C
:1001900055760008000000000000000055760008B9
:1001A000000000000000000000000000557600087C
:1001B00055760008557600085576000855760008F3
:0401C0005576000868
:1001D00010B5054C237833B9044B13B10448AFF381
:1001E00000800123237010BDF001002000000000FA
:1001F0007C80000808B5034B1BB103490348AFF3EB
:10020000008008BD00000000F40100207C80000890
:1002100001F0FF01102A2BDB10F0070F08D010F8B7
:10022000013B013A8B422DD010F0070F42B3F6D1BB
:10023000F0B441EA012141EA014122F007047FF0D4
:1002400000070023F0E80256083C85EA010586EA2B
:10025000010685FA47F5A3FA87F586FA47F6A5FA67
:1002600087F68EB9EED1F0BC01F0FF0102F0070273
:1002700032B110F8013B013A83EA010313B1F8D11E
:100280000020704701387047002D06BF35460338FF
:10029000073815F0010F07D1013015F4807F02BF38
:1002A000013015F4C03F0130F0BC0138704700BF89
:1002B00081F0004102E000BF83F0004330B54FEA17
:1002C00041044FEA430594EA050F08BF90EA020F84
:1002D0001FBF54EA000C55EA020C7FEA645C7FEA17
:1002E000655C00F0E2804FEA5454D4EB5555B8BF3A
:1002F0006D420CDD2C4480EA020281EA030382EAAB
:10030000000083EA010180EA020281EA0303362D3C
:1003100088BF30BD11F0004F4FEA01314FF4801C0F
:100320004CEA113102D0404261EB410113F0004F21
:100330004FEA03334CEA133302D0524263EB4303D8
:1003400094EA050F00F0A780A4F10104D5F1200E76
:100350000DDB02FA0EFC22FA05F2801841F10001D1
:1003600003FA0EF2801843FA05F359410EE0A5F1A5
:1003700020050EF1200E012A03FA0EFC28BF4CF0D6
:10038000020C43FA05F3C01851EBE37101F000458C
:1003900007D54FF0000EDCF1000C7EEB00006EEB99
:1003A0000101B1F5801F1BD3B1F5001F0CD3490823
:1003B0005FEA30004FEA3C0C04F101044FEA44527A
:1003C00012F5800F80F09A80BCF1004F08BF5FEA01
:1003D000500C50F1000041EB045141EA050130BDE1
:1003E0005FEA4C0C404141EB010111F4801FA4F184
:1003F0000104E9D191F0000F04BF01460020B1FAD9
:1004000081F308BF2033A3F10B03B3F120020CDA10
:100410000C3208DD02F1140CC2F10C0201FA0CF0EE
:1004200021FA02F10CE002F11402D8BFC2F1200C53
:1004300001FA02F120FA0CFCDCBF41EA0C01904009
:10044000E41AA2BF01EB0451294330BD6FEA040452
:100450001F3C1CDA0C340EDC04F11404C4F120023D
:1004600020FA04F001FA02F340EA030021FA04F34F
:1004700045EA030130BDC4F10C04C4F1200220FAA6
:1004800002F001FA04F340EA0300294630BD21FAE4
:1004900004F0294630BD94F0000F83F4801306BFAA
:1004A00081F480110134013D4EE77FEA645C18BF9E
:1004B0007FEA655C29D094EA050F08BF90EA020F35
:1004C00005D054EA000C04BF1946104630BD91EA2D
:1004D000030F1EBF0021002030BD5FEA545C05D130
:1004E0004000494128BF41F0004130BD14F580046F
:1004F0003CBF01F5801130BD01F0004545F0FE41E3
:1005000041F470014FF0000030BD7FEA645C1ABF17
:10051000194610467FEA655C1CBF0B46024650EA4E
:10052000013406BF52EA033591EA030F41F400217A
:1005300030BD00BF90F0000F04BF0021704730B500
:100540004FF4806404F132044FF000054FF00001D5
:1005500050E700BF90F0000F04BF0021704730B596
:100560004FF4806404F1320410F0004548BF40426B
:100570004FF000013EE700BF42004FEAE2014FEAC0
:1005800031014FEA02701FBF12F07F4393F07F4F9B
:1005900081F06051704792F0000F14BF93F07F4FCD
:1005A000704730B54FF4607401F0004521F0004110
:1005B00020E700BF50EA010208BF704730B54FF096
:1005C00000050AE050EA010208BF704730B511F09B
:1005D000004502D5404261EB41014FF4806404F1D3
:1005E00032045FEA915C3FF4DCAE4FF003025FEA55
:1005F000DC0C18BF03325FEADC0C18BF033202EBDD
:10060000DC02C2F1200300FA03FC20FA02F001FA36
:1006100003FE40EA0E0021FA02F11444C1E600BFD5
:1006200070B54FF0FF0C4CF4E06C1CEA11541DBF88
:100630001CEA135594EA0C0F95EA0C0F00F0DEF853
:100640002C4481EA030621EA4C5123EA4C5350EA38
:10065000013518BF52EA033541F4801143F4801389
:1006600038D0A0FB02CE4FF00005E1FB02E506F01A
:100670000042E0FB03E54FF00006E1FB03569CF06F
:10068000000F18BF4EF0010EA4F1FF04B6F5007F75
:1006900064F5407404D25FEA4E0E6D4146EB0606E7
:1006A00042EAC62141EA55514FEAC52040EA5E5070
:1006B0004FEACE2EB4F1FD0C88BFBCF5E06F1ED81A
:1006C000BEF1004F08BF5FEA500E50F1000041EB51
:1006D000045170BD06F0004646EA010140EA0200FE
:1006E00081EA0301B4EB5C04C2BFD4EB0C0541EA20
:1006F000045170BD41F480114FF0000E013C00F335
:10070000AB8014F1360FDEBF002001F0004170BD58
:10071000C4F10004203C35DA0C341BDC04F1140471
:10072000C4F1200500FA05F320FA04F001FA05F2FD
:1007300040EA020001F0004221F0004110EBD370CA
:1007400021FA04F642EB06015EEA430E08BF20EAF6
:10075000D37070BDC4F10C04C4F1200500FA04F399
:1007600020FA05F001FA04F240EA020001F000412B
:1007700010EBD37041F100015EEA430E08BF20EA9E
:10078000D37070BDC4F1200500FA05F24EEA020EE6
:1007900020FA04F301FA05F243EA020321FA04F015
:1007A00001F0004121FA04F220EA020000EBD370CC
:1007B0005EEA430E08BF20EAD37070BD94F0000FCC
:1007C0000FD101F00046400041EB010111F4801F00
:1007D00008BF013CF7D041EA060195F0000F18BFB1
:1007E000704703F00046520043EB030313F4801FED
:1007F00008BF013DF7D043EA0603704794EA0C0FA7
:100800000CEA135518BF95EA0C0F0CD050EA4106BC
:1008100018BF52EA4306D1D181EA030101F0004139
:100820004FF0000070BD50EA410606BF1046194661
:1008300052EA430619D094EA0C0F02D150EA01366D
:1008400013D195EA0C0F05D152EA03361CBF1046AE
:1008500019460AD181EA030101F0004141F0FE414D
:1008600041F470014FF0000070BD41F0FE4141F4D1
:10087000780170BD70B54FF0FF0C4CF4E06C1CEAD1
:1008800011541DBF1CEA135594EA0C0F95EA0C0F86
:1008900000F0A7F8A4EB050481EA030E52EA033541
:1008A0004FEA013100F088804FEA03334FF0805562
:1008B00045EA131343EA12634FEA022245EA11158F
:1008C00045EA10654FEA00260EF000419D4208BF40
:1008D000964244F1FD0404F5407402D25B084FEAED
:1008E0003202B61A65EB03055B084FEA32024FF499
:1008F00080104FF4002CB6EB020E75EB030E22BFF6
:10090000B61A754640EA0C005B084FEA3202B6EBB5
:10091000020E75EB030E22BFB61A754640EA5C0064
:100920005B084FEA3202B6EB020E75EB030E22BFF4
:10093000B61A754640EA9C005B084FEA3202B6EBF5
:10094000020E75EB030E22BFB61A754640EADC00B4
:1009500055EA060E18D04FEA051545EA16754FEA16
:1009600006164FEAC30343EA52734FEAC2025FEA34
:100970001C1CC0D111F4801F0BD141EA00014FF0C3
:1009800000004FF0004CB6E711F4801F04BF014394
:100990000020B4F1FD0C88BFBCF5E06F3FF6AFAEB0
:1009A000B5EB030C04BFB6EB020C5FEA500C50F140
:1009B000000041EB045170BD0EF0004E4EEA1131C3
:1009C00014EB5C04C2BFD4EB0C0541EA045170BDCA
:1009D00041F480114FF0000E013C90E645EA060E0E
:1009E0008DE60CEA135594EA0C0F08BF95EA0C0F3C
:1009F0003FF43BAF94EA0C0F0AD150EA01347FF484
:100A000034AF95EA0C0F7FF425AF104619462CE75A
:100A100095EA0C0F06D152EA03353FF4FDAE1046BD
:100A2000194622E750EA410618BF52EA43067FF40E
:100A3000C5AE50EA41047FF40DAF52EA43057FF49E
:100A4000EBAE12E74FEA410212F5001215D211D5B2
:100A50006FF47873B3EB625212D94FEAC12343F0BB
:100A6000004343EA505311F0004F23FA02F018BF3D
:100A7000404270474FF00000704750EA013005D106
:100A800011F0004008BF6FF0004070474FF00000C9
:100A9000704700BF4FEA4102B2F1E04324BFB3F513
:100AA000001CDCF1FE5C0DD901F0004C4FEAC002E5
:100AB0004CEA5070B2F1004F40EB830008BF20F0C9
:100AC0000100704711F0804F21D113F13872BCBF83
:100AD00001F00040704741F480114FEA5252C2F1D8
:100AE0001802C2F1200C10FA0CF320FA02F018BF21
:100AF00040F001004FEAC1234FEAD32303FA0CFC74
:100B000040EA0C0023FA02F34FEA4303CCE77FEA02
:100B1000625307D150EA01331EBF4FF0FE4040F44C
:100B20004000704701F0004040F0FE4040F40000FB
:100B3000704700BF53B94AB9002908BF00281CBF3D
:100B40004FF0FF314FF0FF3000F07AB9ADF1080CF3
:100B50006DE904CE00F006F8DDF804E0DDE90223DB
:100B600004B070472DE9F0478C460D460446089EB8
:100B7000002B51D18A4217466DD9B2FA82FEBEF1DE
:100B8000000F0BD0CEF1200C01FA0EF520FA0CFC70
:100B900002FA0EF74CEA050C00FA0EF44FEA174A77
:100BA000250CBCFBFAF81FFA87F90AFB18CC45EABA
:100BB0000C4508FB09F3AB420AD9ED1908F1FF32E5
:100BC00080F02381AB4240F22081A8F102083D442D
:100BD000ED1AA4B2B5FBFAF00AFB105544EA05443D
:100BE00000FB09F9A14509D9E41900F1FF3380F0B0
:100BF0000A81A14540F2078102383C44A4EB090474
:100C000040EA08400021002E61D024FA0EF40023AF
:100C100034607360BDE8F0878B4207D9002E54D052
:100C2000002186E821000846BDE8F087B3FA83F189
:100C3000002940F08E80AB4202D3824200F2FA805B
:100C4000841A65EB03050120AC46002E3FD086E8F0
:100C50001010BDE8F08712B90127B7FBF2F7B7FA19
:100C600087FEBEF1000F34D1EB1B3A0C1FFA87FC54
:100C70000121B3FBF2F8250C02FB183345EA0345CA
:100C80000CFB08F3AB4207D9ED1908F1FF3002D293
:100C9000AB4200F2D1808046ED1AA3B2B5FBF2F070
:100CA00002FB105543EA05440CFB00FCA44507D9A0
:100CB000E41900F1FF3302D2A44500F2B8801846CF
:100CC000A4EB0C0440EA08409DE731463046BDE8FD
:100CD000F087CEF1200405FA0EF307FA0EF720FA9A
:100CE00004F83A0C25FA04F448EA0308B4FBF2F1DC
:100CF0004FEA184502FB11441FFA87FC45EA0445F8
:100D000001FB0CF3AB4200FA0EF409D9ED1901F125
:100D1000FF3080F08A80AB4240F2878002393D4448
:100D2000EB1A1FFA88F5B3FBF2F002FB103345EA29
:100D3000034500FB0CF3AB4207D9ED1900F1FF3876
:100D40006FD2AB426DD902383D44EB1A40EA014103
:100D50008FE7C1F1200722FA07F88B4005FA01F46A
:100D600048EA030320FA07FE4FEA134CFD404EEA1F
:100D7000040EB5FBFCF94FEA1E440CFB19551FFA93
:100D800083F844EA054509FB08F4AC4202FA01F293
:100D900000FA01FA08D9ED1809F1FF3043D2AC424C
:100DA00041D9A9F102091D442D1B1FFA8EFEB5FB86
:100DB000FCF00CFB10554EEA054400FB08F8A0457A
:100DC00007D9E41800F1FF3529D2A04527D9023808
:100DD0001C4440EA0940A4EB0804A0FB02894C45EE
:100DE000C6464D4615D312D056B1BAEB0E0364EB8E
:100DF000050404FA07F7CB401F43CC40376074600A
:100E00000021BDE8F0871846F8E69046E0E6C245C6
:100E1000EAD2B8EB020E69EB03050138E4E7284695
:100E2000D7E7404691E78146BEE7014678E70238BA
:100E30003C4445E7084608E7A8F102083D442BE793
:100E4000704700BF80B500AF0E4A0E4B1B6843F4DD
:100E5000007313600B4A0B4B1B6843F480631360F1
:100E6000084A084B1B6843F480731360032000F0AA
:100E7000ADFB002000F008F806F060F900231846EA
:100E800080BD00BF003C024080B582B000AF7860FA
:100E9000124B1A68124B1B7819464FF47A73B3FB46
:100EA000F1F3B2FBF3F3184600F0C5FB0346002B49
:100EB00001D001230EE07B680F2B0AD8002279684D
:100EC0004FF0FF3000F08DFB064A7B681360002373
:100ED00000E0012318460837BD4680BD1C000020F5
:100EE000040000200000002080B400AF064B1B78F7
:100EF0001A46064B1B681344044A136000BFBD46E4
:100F00005DF8047B704700BF0400002080020020D1
:100F100080B400AF034B1B681846BD465DF8047BE8
:100F2000704700BF8002002080B584B000AF7860B9
:100F3000FFF7EEFFB8607B68FB60FB68B3F1FF3F33
:100F400005D0094B1B781A46FB681344FB6000BFB1
:100F5000FFF7DEFF0246BB68D21AFB689A42F7D35E
:100F600000BF1037BD4680BD0400002080B584B0AE
:100F700000AF78600023FB737B68002B01D1012355
:100F800033E07B681B6C002B09D17B6800225A641C
:100F90007B68002283F83C20786806F021F97B68A2
:100FA0001B6C03F01003002B18D17B681B6C23F41F
:100FB000885323F0020343F002027B681A647868C6
:100FC00000F040F97B6800225A647B681B6C23F0B8
:100FD000030343F001027B681A6401E00123FB7301
:100FE0007B68002283F83C20FB7B18461037BD4607
:100FF00080BD000090B484B000AF786039600023F9
:10100000BB607B6893F83C30012B01D1022309E1DE
:101010007B68012283F83C203B681B68092B26D99A
:101020007B681A687B681B68D9683B681B689BB241
:10103000184603465B0003441E3B072000FA03F3F7
:10104000DB430B40D3607B681A687B681B68D968F8
:101050003B6898683B681B689BB21C4623465B0054
:1010600023441E3B00FA03F30B43D36023E07B6869
:101070001A687B681B6819693B681B689BB2184635
:1010800003465B000344072000FA03F3DB430B40F5
:1010900013617B681A687B681B6819693B689868EC
:1010A0003B681B689BB21C4623465B00234400FA46
:1010B00003F30B4313613B685B68062B24D87B6802
:1010C00019687B681B68586B3B685A6813469B001D
:1010D0001344053B1F2202FA03F3DB4303404B6337
:1010E0007B6819687B681B68586B3B681B689BB200
:1010F0001C463B685A6813469B001344053B04FAA0
:1011000003F303434B634CE03B685B680C2B24D830
:101110007B6819687B681B68186B3B685A681346C4
:101120009B001344233B1F2202FA03F3DB430340DB
:101130000B637B6819687B681B68186B3B681B68CE
:101140009BB21C463B685A6813469B001344233BE2
:1011500004FA03F303430B6323E07B6819687B689D
:101160001B68D86A3B685A6813469B001344413B8E
:101170001F2202FA03F3DB430340CB627B6819684A
:101180007B681B68D86A3B681B689BB21C463B683F
:101190005A6813469B001344413B04FA03F303438C
:1011A000CB62234BFB607B681B68224A934209D1C8
:1011B0003B681B68122B05D1FB685B6843F4800217
:1011C000FB685A607B681B681A4A934225D13B68CA
:1011D0001B68194A934203D03B681B68112B1CD132
:1011E000FB685B6843F40002FB685A603B681B685D
:1011F000114A934211D1114B1B68114AA2FB0323E0
:101200009A0C13469B0013445B00BB6002E0BB6872
:10121000013BBB60BB68002BF9D17B68002283F8DF
:101220003C20002318461037BD4690BC704700BFD5
:101230000023014000200140120000101C0000208B
:1012400083DE1B4380B485B000AF7860784BFB60D1
:10125000FB685B6823F44032FB685A60FB685A689D
:101260007B685B681A43FB685A607B681B687A6816
:101270001268526822F480725A607B681B687A6830
:10128000126851687A68126912020A435A607B68D0
:101290001B687A681268526822F040725A607B6854
:1012A0001B687A68126851687A6892680A435A60C3
:1012B0007B681B687A681268926822F400629A6000
:1012C0007B681B687A68126891687A68D2680A43FA
:1012D0009A607B689B6A574A934222D07B681B685E
:1012E0007A681268926822F070629A607B681B6864
:1012F0007A68126891687A68926A0A439A607B6891
:101300001B687A681268926822F040529A607B6883
:101310001B687A68126891687A68D26A0A439A6090
:101320000FE07B681B687A681268926822F070622E
:101330009A607B681B687A681268926822F0405253
:101340009A607B681B687A681268926822F00202D1
:101350009A607B681B687A68126891687A689269FB
:1013600052000A439A607B681B6A002B1BD07B6883
:101370001B687A681268526842F400625A607B689F
:101380001B687A681268526822F460425A607B686F
:101390001B687A68126851687A68526A013A520387
:1013A0000A435A6007E07B681B687A6812685268D3
:1013B00022F400625A607B681B687A681268D26AFD
:1013C00022F47002DA627B681B687A681268D16A5C
:1013D0007A68D269013A12050A43DA627B681B68AF
:1013E0007A681268926822F400729A607B681B68BF
:1013F0007A68126891687A68126B52020A439A609E
:101400007B681B687A681268926822F480629A602E
:101410007B681B687A68126891687A6852699202E0
:101420000A439A6000BF1437BD465DF8047B7047DD
:10143000002301400100000F80B485B000AF786048
:101440007B6803F00703FB600C4BDB68BB60BA688A
:101450004FF6FF031340BB60FB681A02BB681343DF
:1014600043F0BF6343F40033BB60044ABB68D360FE
:1014700000BF1437BD465DF8047B704700ED00E007
:1014800080B400AF044BDB681B0A03F00703184667
:10149000BD465DF8047B704700ED00E080B483B08A
:1014A00000AF0346FB71094997F907305B09FA79E8
:1014B00002F01F02012000FA02F241F8232000BFCF
:1014C0000C37BD465DF8047B704700BF00E100E0CB
:1014D00080B483B000AF03463960FB7197F90730E1
:1014E000002B0BDA0D49FB7903F00F03043B3A683C
:1014F000D2B21201D2B20B441A7609E0084997F928
:1015000007303A68D2B21201D2B20B4483F80023FA
:1015100000BF0C37BD465DF8047B704700ED00E06E
:1015200000E100E080B489B000AFF860B9607A6093
:10153000FB6803F00703FB61FB69C3F10703042B9E
:1015400028BF0423BB61FB690433062B02D9FB6966
:10155000033B00E000237B610122BB6902FA03F335
:101560005A1EBB681A407B699A4001217B6901FAC7
:1015700003F3591E7B680B40134318462437BD46BE
:101580005DF8047B7047000080B582B000AF7860E2
:101590007B68013BB3F1807F01D301230FE00A4A4E
:1015A0007B68013B53600F214FF0FF30FFF790FF46
:1015B000054B00229A60044B07221A60002318464C
:1015C0000837BD4680BD00BF10E000E080B582B0A6
:1015D00000AF78607868FFF72FFF00BF0837BD467F
:1015E00080BD80B586B000AF0346B9607A60FB73FA
:1015F00000237B61FFF744FF78617A68B9687869F6
:10160000FFF790FF024697F90F3011461846FFF793
:101610005FFF00BF1837BD4680BD80B582B000AF08
:101620000346FB7197F907301846FFF737FF00BFF5
:101630000837BD4680BD80B582B000AF786078685D
:10164000FFF7A2FF034618460837BD4680BD0000DD
:1016500080B483B000AF78607B68042B06D1094A60
:10166000084B1B6843F00403136005E0054A054B73
:101670001B6823F00403136000BF0C37BD465DF800
:10168000047B704710E000E080B500AF00F002F886
:1016900000BF80BD80B400AF00BFBD465DF8047BD5
:1016A000704780B483B000AF78607B6893F83530C2
:1016B000DBB2022B04D07B6880225A6501230CE048
:1016C0007B68052283F835207B681B687A6812687E
:1016D000126822F001021A60002318460C37BD463A
:1016E0005DF8047B7047000080B489B000AF78607B
:1016F000396000237B6100233B610023BB61002331
:10170000FB6165E10122FB6902FA03F37B613B683F
:101710001A687B6913403B613A697B699A4240F0E1
:1017200054813B685B68022B03D03B685B68122BDB
:1017300023D1FB69DA087B68083253F82230BB6199
:10174000FB6903F007039B000F2202FA03F3DB435C
:10175000BA691340BB613B681A69FB6903F0070370
:101760009B0002FA03F3BA691343BB61FB69DA0811
:101770007B680832B96943F822107B681B68BB613B
:10178000FB695B00032202FA03F3DB43BA691340EF
:10179000BB613B685B6803F00302FB695B0002FA14
:1017A00003F3BA691343BB617B68BA691A603B688B
:1017B0005B68012B0BD03B685B68022B07D03B6852
:1017C0005B68112B03D03B685B68122B30D17B68C0
:1017D0009B68BB61FB695B00032202FA03F3DB43F6
:1017E000BA691340BB613B68DA68FB695B0002FAC7
:1017F00003F3BA691343BB617B68BA699A607B687B
:101800005B68BB610122FB6902FA03F3DB43BA693F
:101810001340BB613B685B681B0903F00102FB6975
:1018200002FA03F3BA691343BB617B68BA695A6071
:101830007B68DB68BB61FB695B00032202FA03F390
:10184000DB43BA691340BB613B689A68FB695B0084
:1018500002FA03F3BA691343BB617B68BA69DA60C1
:101860003B685B6803F08053002B00F0AE800023E0
:10187000FB605C4A5B4B5B6C43F480435364594BA5
:101880005B6C03F48043FB60FB68574AFB699B0871
:10189000023352F82330BB61FB6903F003039B0062
:1018A0000F2202FA03F3DB43BA691340BB617B6882
:1018B0004E4A934225D07B684D4A93421FD07B68A5
:1018C0004C4A934219D07B684B4A934213D07B68B1
:1018D0004A4A93420DD07B68494A934207D07B68BD
:1018E000484A934201D106230CE007230AE005236E
:1018F00008E0042306E0032304E0022302E00123BE
:1019000000E00023FA6902F0030292009340BA69F2
:101910001343BB613449FB699B080233BA6941F840
:101920002320394B1B68BB613B69DB43BA69134019
:10193000BB613B685B6803F48033002B03D0BA695A
:101940003B691343BB61304ABB6913602E4B5B6834
:10195000BB613B69DB43BA691340BB613B685B68B1
:1019600003F40033002B03D0BA693B691343BB6116
:10197000254ABB695360244B9B68BB613B69DB43D1
:10198000BA691340BB613B685B6803F48013002BAA
:1019900003D0BA693B691343BB611B4ABB699360BF
:1019A000194BDB68BB613B69DB43BA691340BB6120
:1019B0003B685B6803F40013002B03D0BA693B69F2
:1019C0001343BB61104ABB69D360FB690133FB6100
:1019D000FB690F2B7FF696AE00BF2437BD465DF83E
:1019E000047B70470038024000380140000002408C
:1019F0000004024000080240000C024000100240B7
:101A00000014024000180240003C014080B483B042
:101A100000AF78600B467B8013467B707B78002B91
:101A200003D07A887B689A6103E07B881A047B681C
:101A30009A6100BF0C37BD465DF8047B704780B4E7
:101A400083B000AF78600B467B807B685A697B88E7
:101A50005A407B685A6100BF0C37BD465DF8047B75
:101A60007047000080B584B000AF78600023FB6051
:101A70000023BB607B68002B01D10123C8E07B6899
:101A800093F83D30DBB2002B06D17B68002283F84F
:101A90003C20786805F0D2FB7B68242283F83D2047
:101AA0007B681B687A681268126822F001021A606B
:101AB00001F092FFB860BB68574AA2FB03239B0C5E
:101AC000FB607B681B68FA685A607B681A687B68F1
:101AD0005B6852498B4202D8FB68013309E0FB681E
:101AE0004FF4967101FB03F34D49A1FB03139B09CE
:101AF000013313627B6819687B685B68474A9342CD
:101B000012D87B685B685B00BA68B2FBF3F3C3F37F
:101B10000B03032B06D97B685B685B00BA68B2FBDA
:101B2000F3F345E0042343E07B689B68002B0FD16F
:101B30007B685A6813465B001344BA68B2FBF3F340
:101B4000C3F30B03002B0CBF01230023DBB210E017
:101B50007B685A6813469B0013449A001344BA6882
:101B6000B2FBF3F3C3F30B03002B0CBF01230023E1
:101B7000DBB2002B01D001231AE07B689B68002BAD
:101B80000AD17B685A6813465B001344BA68B2FBFB
:101B9000F3F343F400430BE07B685A6813469B0061
:101BA00013449A001344BA68B2FBF3F343F440437E
:101BB000CB617B681B687A68D1697A68126A0A43CC
:101BC0001A607B681B687A6811697A68D2680A4370
:101BD0009A607B681B687A6851697A6892690A43DF
:101BE000DA607B681B687A681268126842F001024A
:101BF0001A607B6800221A647B68202283F83D20EB
:101C00007B6800221A637B68002283F83E20002351
:101C100018461037BD4680BD83DE1B43A0860100F9
:101C2000D34D621080B588B002AFF8607A601A4672
:101C30000B467B8113463B8100237B61FFF768F9EC
:101C40007861FB6893F83D30DBB2202B40F0EE80EA
:101C50007B690093192301227749F86801F01CFC85
:101C60000346002B01D00223E1E0FB6893F83C30EF
:101C7000012B01D10223DAE0FB68012283F83C202A
:101C8000FB681B681B6803F00103012B07D0FB688E
:101C90001B68FA681268126842F001021A60FB6859
:101CA0001B68FA681268126822F400621A60FB6806
:101CB000212283F83D20FB68102283F83E20FB6838
:101CC00000221A64FB687A685A62FB683A895A856E
:101CD000FB685A4ADA62FB685B8D9AB2FB681A8528
:101CE00079897B693A6AF86801F006FB0346002BA4
:101CF0000FD0FB681B6C042B05D1FB68002283F816
:101D00003C20012393E0FB68002283F83C2003235E
:101D10008DE000233B61FB681B685B693B61FB68EE
:101D20001B689B693B613B6966E07A69396AF868C0
:101D300001F071FC0346002B0FD0FB681B6C042BD9
:101D400009D1FB681B68FA681268126842F40072D5
:101D50001A6001236BE0032369E0FB681A68FB68E3
:101D60005B6A581CF96848621B781361FB685B8DDD
:101D70009BB2013B9AB2FB685A85FB681B8D013B05
:101D80009AB2FB681A85FB681B685B6903F0040361
:101D9000042B19D1FB681B8D002B15D0FB681A682A
:101DA000FB685B6A581CF96848621B781361FB6822
:101DB0005B8D9BB2013B9AB2FB685A85FB681B8D19
:101DC000013B9AB2FB681A857A69396AF86801F0B2
:101DD0005FFC0346002B0FD0FB681B6C042B09D162
:101DE000FB681B68FA681268126842F400721A6095
:101DF00001231CE003231AE0FB681B8D002B94D108
:101E0000FB681B68FA681268126842F400721A6074
:101E1000FB68202283F83D20FB68002283F83E20E7
:101E2000FB68002283F83C20002300E002231846D0
:101E30001837BD4680BD00BF020010000000FFFF44
:101E400080B487B000AFF860084611461A460346D2
:101E50007B810B463B811346FB8000237B61FB6843
:101E600093F83D30DBB2202B40F08D80494B1B684E
:101E7000DB08494AA2FB03231A0A13469B001344BA
:101E80009A0013447B617B695A1E7A61002B0CD146
:101E9000FB6800221A63FB68202283F83D20FB6860
:101EA000002283F83C2003236EE0FB681B689B69DB
:101EB00003F00203022BE6D0FB6893F83C30012BC1
:101EC00001D1022360E0FB68012283F83C20FB681B
:101ED0001B681B6803F00103012B07D0FB681B681C
:101EE000FA681268126842F001021A60FB681B6807
:101EF000FA681268126822F400621A60FB682222F3
:101F000083F83D20FB68402283F83E20FB680022D6
:101F10001A64FB683A6A5A62FB68BA8C1A85FB68D5
:101F2000BA8C5A85FB681D4ADA627A89FB685A6462
:101F30003A89FB689A64FA88FB68DA64FB680022D5
:101F40001A65FB681B68FA681268126842F48062BE
:101F50001A60FB681B68FA681268126842F48072A3
:101F60001A60FB68002283F83C20FB681B8D002B65
:101F700007D0FB681B68FA681268526842F4E06296
:101F80005A60002300E0022318461C37BD465DF866
:101F9000047B70471C00002089B5F8140000FFFF87
:101FA00080B586B000AF78607B681B689B697B61F9
:101FB0007B681B685B693B617B681B685B68FB60D7
:101FC0007B6893F83E30DBB2BB60BB68102B02D05D
:101FD000BB68402B72D13B6903F00113002B08D082
:101FE000FB6803F40073002B03D0786800F082FCD8
:101FF0001AE03A69654B1340002B08D0FB6803F4E4
:102000000073002B03D0786800F0DFFC0CE03A6925
:102010005F4B1340002B07D0FB6803F40073002BC9
:1020200002D0786800F0E2FC7A695A4B1340002B2A
:1020300022D03A69584B1340002B0DD0FB6803F4B3
:102040008063002B08D03A69544B1340002B03D116
:10205000786800F09DF930E03A69504B1340002B4E
:1020600000F08F80FB6803F40073002B00F0898080
:10207000786800F082FA84E03A69494B1340002BFB
:102080000DD0FB6803F48063002B08D03A69434B02
:102090001340002B03D1786800F0E4FA0DE03A69B0
:1020A0003E4B1340002B6CD0FB6803F40073002BF5
:1020B00067D0786800F050FB63E062E03A69344B27
:1020C0001340002B08D0FB6803F40073002B03D0EF
:1020D000786800F0AAFE55E03A69324B1340002BB5
:1020E00008D0FB6803F40073002B03D0786800F07D
:1020F000C7FE47E07A69274B1340002B20D03A698E
:10210000254B1340002B0DD0FB6803F48063002B9C
:1021100008D03A69214B1340002B03D1786800F0B6
:10212000C8FD2FE03A691D4B1340002B2AD0FB68F5
:1021300003F40073002B25D0786800F0F7FD21E050
:102140003A69174B1340002B0DD0FB6803F48063F2
:10215000002B08D03A69114B1340002B03D178684B
:1021600000F004FE0EE03A690C4B1340002B09D03E
:10217000FB6803F40073002B04D0786800F034FE91
:1021800000E000BF00BF1837BD4680BD0800010059
:1021900002000100040010008000010004000100A2
:1021A000400001001000010080B588B000AF7860E9
:1021B0000023FB610023BB6100237B6100233B61A3
:1021C0007B681B685B69FB607B681B685B68BB6046
:1021D000FA68494B1340002B0FD0BB6803F480739F
:1021E000002B0AD07B681B6C43F001027B681A64E9
:1021F0007B681B686FF480725A61FB6803F481335B
:10220000002B0FD0BB6803F48073002B0AD07B68CF
:102210001B6C43F002027B681A647B681B686FF4D6
:1022200000725A61FB6803F48233002B44D0BB6810
:1022300003F48073002B3FD07B6893F83E30DBB211
:10224000FB617B685B8D9BB2BB617B6893F83D3023
:10225000DBB27B617B681B6B3B61FB69202B12D17E
:10226000BB69002B0FD17B69212B08D07B69292BFF
:1022700005D07B69282B06D13B69212B03D17868D7
:1022800000F0C4FE18E07B681B6C43F004027B681E
:102290001A647B6893F83E30DBB2102B07D17B6861
:1022A0001B687A681268126842F400721A607B68D0
:1022B0001B686FF480625A61FB6803F48433002B5F
:1022C0000FD0BB6803F48073002B0AD07B681B6CB3
:1022D00043F008027B681A647B681B686FF4006235
:1022E0005A617B681B6C002B02D0786800F000FFFD
:1022F00000BF2037BD4680BD0001010080B483B01F
:1023000000AF786000BF0C37BD465DF8047B7047B6
:1023100080B483B000AF786000BF0C37BD465DF875
:10232000047B704780B483B000AF786000BF0C3787
:10233000BD465DF8047B704780B483B000AF786021
:102340000B46FB7013463B8000BF0C37BD465DF863
:10235000047B704780B483B000AF786000BF0C3757
:10236000BD465DF8047B704780B483B000AF7860F1
:1023700000BF0C37BD465DF8047B704780B483B066
:1023800000AF786000BF0C37BD465DF8047B704736
:1023900080B586B000AF78607B6893F83D30DBB2E3
:1023A0007B617B6893F83E30DBB23B617B68DB6A24
:1023B000FB607B681B8D002B50D17B69212B4DD19D
:1023C000FB68042B1DD0FB68082B1AD0FB6813F5A3
:1023D000803F16D07B681B687A681268526822F4C6
:1023E000E0625A607B6811221A637B68002283F8DE
:1023F0003E207B68202283F83D207868FFF77EFF2F
:10240000B6E07B681B687A681268526822F4E06262
:102410005A607B681B687A681268126842F400721E
:102420001A607B6800221A637B68202283F83D20B3
:102430007B6893F83E30DBB2402B07D17B680022EB
:1024400083F83E207868FFF78FFF91E07B680022D9
:1024500083F83E207868FFF751FF89E07B69212BE4
:1024600006D03B69402B40F083807B69222B7FD1D3
:102470007B685B8D9BB2002B08D17B681B687A68F8
:102480001268526822F480625A6071E07B6893F8A7
:102490003E30DBB2402B5BD17B681B6D002B1DD126
:1024A0007B68DB6C012B0BD17B681B687A68926CB4
:1024B000D2B21A617B681B6D9A1C7B681A6557E063
:1024C0007B681B687A68926C92B21212D2B21A615F
:1024D0007B681B6D5A1C7B681A6549E07B681B6D25
:1024E000012B0BD17B681B687A68926CD2B21A619F
:1024F0007B681B6D5A1C7B681A6539E07B681B6D15
:10250000022B35D17B6893F83D30DBB2222B08D10A
:102510007B681B687A681268126842F480721A60DD
:1025200026E07B6893F83D30DBB2212B20D17B681D
:102530001A687B685B6A581C796848621B7813616B
:102540007B685B8D9BB2013B9AB27B685A850FE03A
:102550007B681A687B685B6A581C796848621B78DC
:1025600013617B685B8D9BB2013B9AB27B685A8595
:10257000002318461837BD4680BD80B584B000AF33
:1025800078607B68DB6AFB607B6893F83D30DBB288
:10259000212B62D17B685B8D9BB2002B10D07B68B6
:1025A0001A687B685B6A581C796848621B781361FB
:1025B0007B685B8D9BB2013B9AB27B685A854CE08D
:1025C000FB68042B1DD0FB68082B1AD0FB6813F5A1
:1025D000803F16D07B681B687A681268526822F4C4
:1025E000E0625A607B6811221A637B68002283F8DC
:1025F0003E207B68202283F83D207868FFF77EFE2E
:102600002BE07B681B687A681268526822F4E062EB
:102610005A607B681B687A681268126842F400721C
:102620001A607B6800221A637B68202283F83D20B1
:102630007B6893F83E30DBB2402B07D17B680022E9
:1026400083F83E207868FFF78FFE06E07B68002263
:1026500083F83E207868FFF751FE002318461037B4
:10266000BD4680BD80B584B000AF78607B6893F8CC
:102670003D30DBB2222B6AD10023FB607B685B8D8F
:102680009BB2FB60FB68032B1ED97B685B6A591CFD
:102690007A6851627A6812681269D2B21A707B68DD
:1026A0005B8D9BB2013B9AB27B685A857B685B8DE0
:1026B0009BB2032B4BD17B681B687A681268526807
:1026C00022F480625A6042E0FB68012B02D0FB6872
:1026D000002B3CD17B681B687A681268126822F470
:1026E00080621A607B681B687A681268526822F4FC
:1026F000E0625A607B685B6A591C7A6851627A684A
:1027000012681269D2B21A707B685B8D9BB2013B72
:102710009AB27B685A857B68202283F83D207B68CB
:1027200000221A637B6893F83E30DBB2402B07D15E
:102730007B68002283F83E20786804F077F906E091
:102740007B68002283F83E20786804F05FF900235C
:1027500018461037BD4680BD80B584B000AF7860A4
:102760007B68DB6AFB607B685B8D9BB2042B19D1B5
:102770007B681B687A681268526822F480625A602B
:102780007B685B6A591C7A6851627A6812681269C0
:10279000D2B21A707B685B8D9BB2013B9AB27B68A8
:1027A0005A85A2E07B685B8D9BB2032B21D17B68AD
:1027B0001B687A681268526822F480625A607B68EB
:1027C0001B687A681268126822F480621A607B685B
:1027D0005B6A591C7A6851627A6812681269D2B2CF
:1027E0001A707B685B8D9BB2013B9AB27B685A85FD
:1027F0007BE07B685B8D9BB2022B65D1FB68022B73
:1028000002D0FB68012B10D17B681B687A681268C4
:10281000126822F480621A607B681B687A6812680A
:10282000126842F480721A6007E07B681B687A685D
:102830001268126842F400721A607B685B6A591C65
:102840007A6851627A6812681269D2B21A707B682B
:102850005B8D9BB2013B9AB27B685A857B685B6A51
:10286000591C7A6851627A6812681269D2B21A7079
:102870007B685B8D9BB2013B9AB27B685A857B6813
:102880001B687A681268526822F440725A607B684A
:10289000202283F83D207B6800221A637B6893F82E
:1028A0003E30DBB2402B07D17B68002283F83E200C
:1028B000786804F0BBF818E07B68002283F83E20BB
:1028C000786804F0A3F810E07B685B6A591C7A68AA
:1028D00051627A6812681269D2B21A707B685B8D95
:1028E0009BB2013B9AB27B685A8500231846103789
:1028F000BD4680BD80B483B000AF78607B6893F83C
:102900003E30DBB2402B16D17B681B6D002B08D10B
:102910007B681B687A68526CD2B202F0FE021A61C0
:102920004CE07B681B687A68526CD2B242F00102BC
:10293000D2B21A6142E07B681B69B3F5804F18D1AF
:102940007B6893F83D30DBB2212B08D17B681B6894
:102950007A68526CD2B202F0FE021A612EE07B68F5
:102960001B687A68526CD2B242F00102D2B21A618C
:1029700024E07B681B6D002B0ED17B681B687A6896
:10298000526C92B2D211D2B202F00602D2B262F00E
:102990000F02D2B21A6111E07B681B6D012B0DD1C1
:1029A0007B681B687A68526C92B2D211D2B202F084
:1029B0000602D2B262F00E02D2B21A6100231846A9
:1029C0000C37BD465DF8047B704780B483B000AF20
:1029D00078607B681B687A68526CD2B21A610023F7
:1029E00018460C37BD465DF8047B704780B491B043
:1029F00000AF78607B6893F83E30DBB2FB637B68A6
:102A0000DB6ABB637B681B6B7B637B6893F83D3041
:102A1000DBB2222B40F03B817B681B6D002B0ED17B
:102A2000FB6B402B0BD100233B637B681B685B690E
:102A30003B637B681B689B693B633B6B32E17B6854
:102A40001B6D002B1DD17B681B69B3F5404F18D15E
:102A50000023FB627B681B685B69FB627B681B6809
:102A60009B69FB62FB6A7B681B687A681268126864
:102A700042F480721A607B681B6D5A1C7B681A6571
:102A800010E17B685B8D9BB2002B13D10023BB62EE
:102A90007B681B685B69BB627B681B689B69BB6268
:102AA000BB6A7B681B687A681268126842F400721D
:102AB0001A60E8E07B685B8D9BB2012B40F082805E
:102AC000BB6B13F5803F37D17B681B687A6812684F
:102AD000126822F480621A607B681B685B6803F4EA
:102AE0000063B3F5006F13D17B681B687A681268C6
:102AF000126822F480621A6000237B627B681B6884
:102B00005B697B627B681B689B697B627B6ABAE05E
:102B100000233B627B681B685B693B627B681B68C8
:102B20009B693B623B6A7B681B687A681268126823
:102B300042F400721A60A6E0BB6B042B26D0BB6B7C
:102B4000082B23D07B6B122B20D07B68DB6A022BF7
:102B500008D07B681B687A681268126822F4806269
:102B60001A6007E07B681B687A681268126842F492
:102B700080621A600023FB617B681B685B69FB61F4
:102B80007B681B689B69FB61FB697CE07B681B6859
:102B90007A681268126822F480621A600023BB61AE
:102BA0007B681B685B69BB617B681B689B69BB6159
:102BB000BB697B681B687A681268126842F400720D
:102BC0001A6060E07B685B8D9BB2022B38D17B681A
:102BD000DB6A022B10D07B681B687A681268126867
:102BE00022F480621A607B681B687A681268126837
:102BF00042F400621A6007E07B681B687A6812681A
:102C0000126842F480621A607B681B685B6803F498
:102C10000063B3F5006F07D17B681B687A681268A0
:102C2000526842F480525A6000237B617B681B68C3
:102C30005B697B617B681B689B697B617B6922E0C8
:102C40007B681B687A681268126842F480621A60B6
:102C50007B681B685B6803F40063B3F5006F07D102
:102C60007B681B687A681268526842F480525A6026
:102C700000233B617B681B685B693B617B681B6869
:102C80009B693B613B697B6800221A650AE000236F
:102C9000FB607B681B685B69FB607B681B689B69EA
:102CA000FB60FB68002318464437BD465DF8047B93
:102CB000704780B584B000AF78607B6893F83D3092
:102CC000DBB2FB607B685B8D9BB2002B29D07B68FD
:102CD0001A687B685B6A581C796848621B781361C4
:102CE0007B685B8D9BB2013B9AB27B685A857B689F
:102CF0005B8D9BB2002B14D1FB68292B11D17B6813
:102D00001B687A681268526822F480625A607B6895
:102D100021221A637B68282283F83D207868FFF718
:102D2000F7FA002318461037BD4680BD80B483B043
:102D300000AF78607B685B8D9BB2002B0FD07B6807
:102D40001A687B685B6A581C796848621B78136153
:102D50007B685B8D9BB2013B9AB27B685A850023EE
:102D600018460C37BD465DF8047B704780B584B0CB
:102D700000AF78607B6893F83D30DBB2FB607B6826
:102D80005B8D9BB2002B2AD07B685B6A591C7A68EA
:102D900051627A6812681269D2B21A707B685B8DD0
:102DA0009BB2013B9AB27B685A857B685B8D9BB274
:102DB000002B14D1FB682A2B11D17B681B687A6821
:102DC0001268526822F480625A607B6822221A6379
:102DD0007B68282283F83D207868FFF7A3FA002358
:102DE00018461037BD4680BD80B483B000AF786010
:102DF0007B685B8D9BB2002B10D07B685B6A591C93
:102E00007A6851627A6812681269D2B21A707B6865
:102E10005B8D9BB2013B9AB27B685A8500231846B2
:102E20000C37BD465DF8047B704780B584B000AFB9
:102E300078600023FB730023BB817B681B689B6960
:102E400003F00403042B01D00123FB737B681B6890
:102E50009B6903F08003802B03D07B68DB68BB8118
:102E600002E07B689B69BB81BA89FB7B1946786865
:102E7000FFF762FA002318461037BD4680BD0000F8
:102E800080B584B000AF78607B6893F83D30DBB2EA
:102E9000FB607B681B687A681268526822F4E06203
:102EA0005A600023BB607B681B685B69BB607B6802
:102EB0001B687A681268126842F001021A60BB68E7
:102EC0007B681B687A681268126822F480621A6054
:102ED0007B681B685B6803F40063B3F5006F1AD16D
:102EE0007B6893F83D30DBB2222B05D07B6893F8EA
:102EF0003D30DBB22A2B07D17B689B6B1B685B687C
:102F00009AB27B685A8506E07B685B6B1B685B68DE
:102F10009AB27B685A857B685B8D9BB2002B35D05B
:102F20007B681B685B6903F00403042B10D17B688A
:102F30005B6A591C7A6851627A6812681269D2B267
:102F40001A707B685B8D9BB2013B9AB27B685A8595
:102F50007B681B685B6903F04003402B10D17B68E2
:102F60005B6A591C7A6851627A6812681269D2B237
:102F70001A707B685B8D9BB2013B9AB27B685A8565
:102F80007B681B6C43F004027B681A647B681B6CD3
:102F9000002B03D0786800F0ABF82FE0FB68282BFB
:102FA00005D0FB682A2B02D0FB68292B11D17B6846
:102FB000154ADA627B6800221A637B68202283F854
:102FC0003D207B68002283F83E207868FFF7C2F935
:102FD00014E07B681B6B222B02D0FB68222B0DD1E7
:102FE0007B6800221A637B68202283F83D207B687F
:102FF000002283F83E207868FFF794F900231846F2
:103000001037BD4680BD00BF0000FFFF80B584B013
:1030100000AF78607B6893F83D30DBB2FB607B6883
:10302000DB6ABB60BB68042B02D0BB68082B29D1CC
:10303000FB68282B26D17B682C4ADA627B681B68E8
:103040007A681268526822F4E0625A607B681B68F2
:103050006FF480625A617B681B687A681268126834
:1030600022F480621A607B6800221A637B68202247
:1030700083F83D207B68002283F83E207868FFF7C4
:1030800069F92EE0FB68212B26D17B68174ADA62AA
:103090007B6821221A637B68202283F83D207B68AD
:1030A000002283F83E207B681B687A6812685268A9
:1030B00022F4E0625A607B681B686FF480625A6198
:1030C0007B681B687A681268126822F480621A6052
:1030D0007868FFF71DF904E07B681B686FF4806275
:1030E0005A61002318461037BD4680BD0000FFFF1F
:1030F00080B584B000AF78607B6893F83D30DBB278
:10310000FB60FB68292B02D0FB682A2B07D17B6868
:1031100000221A637B68282283F83D2018E07B6830
:1031200093F83D30DBB2602B0BD07B681B685B688B
:1031300003F40063B3F5006F03D07B68202283F8AB
:103140003D207B6800221A637B68002283F83E20C2
:103150007B681B687A681268126822F400621A6041
:103160007B681B685B6803F40063B3F5006F60D194
:103170007B681B687A681268526822F400625A60A1
:103180007B685B6B93F83530DBB2012B20D07B681A
:103190005B6B574A1A657B685B6B1846FEF781FAD2
:1031A0000346002B00F083807B681B687A681268F6
:1031B000126822F001021A607B68202283F83D2009
:1031C0007B685B6B1B6D7A68526B104698476EE0AC
:1031D0007B689B6B464A1A657B689B6B1846FEF7BB
:1031E00060FA0346002B62D07B681B685B6903F0C2
:1031F0004003402B09D17B685B6A591C7A68516295
:103200007A6812681269D2B21A707B681B687A6891
:103210001268126822F001021A607B68202283F88B
:103220003D207B689B6B1B6D7A68926B10469847BC
:103230003DE07B6893F83D30DBB2602B23D17B68A7
:10324000202283F83D207B6800221A647B681B687B
:103250005B6903F04003402B09D17B685B6A591C12
:103260007A6851627A6812681269D2B21A707B6801
:103270001B687A681268126822F001021A60786886
:10328000FFF77CF813E07B681B685B6903F0400381
:10329000402B09D17B685B6A591C7A6851627A6855
:1032A00012681269D2B21A70786803F0CFFB7B689B
:1032B00093F83D30DBB2282B16D17B681B6C03F0F2
:1032C0000403042B10D17B680A4ADA627B6800226F
:1032D0001A637B68202283F83D207B68002283F8F4
:1032E0003E207868FFF736F800BF1037BD4680BD36
:1032F000FD3300080000FFFF80B588B002AFF86022
:103300007A603B600B467B81FB68DB6A7B617B6993
:10331000042B06D07B69012B03D07B6913F5803F1A
:1033200008D1FB681B68FA681268126842F4807260
:103330001A600BE0FB681B6B122B07D1FB681B6844
:10334000FA681268126842F480721A603B6800934F
:103350007B6800224FF00111F86800F09DF80346E9
:10336000002B01D0032340E0FB681B69B3F5804FBD
:1033700007D1FB681B687A89D2B202F0FE021A619B
:1033800021E0FB681B687A89D211D2B202F00602F2
:10339000D2B262F00F02D2B21A613B687A68154964
:1033A000F86800F0CAF80346002B07D0FB681B6CD6
:1033B000042B01D1012318E0032316E0FB681B68EE
:1033C0007A89D2B21A613B687A680B49F86800F0D2
:1033D000B4F80346002B07D0FB681B6C042B01D10B
:1033E000012302E0032300E0002318461837BD46FE
:1033F00080BD00BF080001000200010080B584B05C
:1034000000AF78607B689B6BFB60FB681B68FA68A9
:103410001268126822F480621A60FB6800225A85E2
:10342000FB685B6B00221A65FB689B6B00221A65C8
:10343000FB6893F83D30DBB2602B16D1FB6820228D
:1034400083F83D20FB68002283F83E20FB680022C1
:103450001A64FB681B68FA681268126822F001029D
:103460001A60F868FEF78AFF12E0FB68202283F8F2
:103470003D20FB68002283F83E20FB681B68FA6849
:103480001268126822F001021A60F86803F0DEFA8E
:1034900000BF1037BD4680BD80B584B000AFF86076
:1034A000B9603B601346FB711FE03B68B3F1FF3F1F
:1034B0001BD03B68002B07D0FDF72AFD0246BB69F5
:1034C000D21A3B689A4210D9FB6800221A63FB6843
:1034D000202283F83D20FB68002283F83E20FB6811
:1034E000002283F83C20032323E0BB681B0CDBB2E3
:1034F000012B0DD1FB681B685B69DA43BB68134085
:103500009BB2002B0CBF01230023DBB21A460CE058
:10351000FB681B689B69DA43BB6813409BB2002BB6
:103520000CBF01230023DBB21A46FB799A42BCD0C0
:10353000002318461037BD4680BD80B584B000AF6B
:10354000F860B9607A603B6040E0FB681B685B69CB
:1035500003F48063B3F5806F1CD1FB681B68FA68C5
:103560001268126842F400721A60FB681B686FF4FC
:1035700080625A61FB6804221A64FB6800221A63A5
:10358000FB68202283F83D20FB68002283F83C2062
:1035900001233CE07B68B3F1FF3F17D07B68002B31
:1035A00007D0FDF7B5FC02463B68D21A7B689A4209
:1035B0000CD9FB6800221A63FB68202283F83D20A7
:1035C000FB68002283F83C20032320E0BB681B0C2F
:1035D000DBB2012B0CD1FB681B685B69DA43BB686B
:1035E00013409BB2002B14BF01230023DBB20BE07E
:1035F000FB681B689B69DA43BB6813409BB2002BD6
:1036000014BF01230023DBB2002B9ED100231846F8
:103610001037BD4680BD80B584B000AFF860B9609A
:103620007A6029E0F86800F070F80346002B01D0BA
:10363000012329E0BB68B3F1FF3F1DD0BB68002B1D
:1036400007D0FDF765FC02467B68D21ABB689A4238
:1036500012D9FB681B6C43F02002FB681A64FB68FC
:1036600000221A63FB68202283F83D20FB680022B9
:1036700083F83C20032307E0FB681B685B6903F0C9
:103680008003802BCED1002318461037BD4680BD65
:1036900080B584B000AFF860B9607A6029E0F8685E
:1036A00000F033F80346002B01D0012329E0BB686A
:1036B000B3F1FF3F1DD0BB68002B07D0FDF728FCFE
:1036C00002467B68D21ABB689A4212D9FB681B6C0F
:1036D00043F02002FB681A64FB6800221A63FB684F
:1036E000202283F83D20FB68002283F83C2003233E
:1036F00007E0FB681B685B6903F00403042BCED171
:10370000002318461037BD4680BD80B483B000AF9B
:1037100078607B681B685B6903F48063B3F5806F36
:1037200014D17B681B686FF480625A617B68042245
:103730001A647B6800221A637B68202283F83D208C
:103740007B68002283F83C20012300E00023184618
:103750000C37BD465DF8047B7047000080B582B031
:1037600000AF00237B6000233B60204A1F4B1B6C93
:1037700043F0805313641D4B1B6C03F080533B607C
:103780003B681B4B01221A60FDF7C2FB786009E021
:10379000FDF7BEFB02467B68D31AB3F57A7F01D9E9
:1037A00003231FE0134B5B6803F48033B3F5803FC2
:1037B000EED1114B01221A60FDF7AAFB786009E0F7
:1037C000FDF7A6FB02467B68D31AB3F57A7F01D9D1
:1037D000032307E0074B5B6803F40033B3F5003FB6
:1037E000EED1002318460837BD4680BD00380240A0
:1037F00040000E420070004044000E4280B584B08C
:1038000000AF786039607B68002B01D10123CAE0EA
:10381000674B1B6803F00F023B689A420CD2644B63
:103820003A68D2B21A70624B1B6803F00F023B6811
:103830009A4201D00123B6E07B681B6803F00203C3
:10384000002B20D07B681B6803F00403002B05D0FD
:10385000584A584B9B6843F4E05393607B681B685D
:1038600003F00803002B05D0524A524B9B6843F4E7
:10387000604393604F494F4B9B6823F0F0027B6895
:103880009B6813438B607B681B6803F00103002B6C
:1038900044D07B685B68012B07D1464B1B6803F45F
:1038A0000033002B19D101237DE07B685B68022B7C
:1038B00003D07B685B68032B07D13E4B1B6803F08A
:1038C0000073002B09D101236DE03A4B1B6803F014
:1038D0000203002B01D1012365E03649354B9B687B
:1038E00023F003027B685B6813438B60FDF710FBDA
:1038F000F8600AE0FDF70CFB0246FB68D31A41F2C0
:103900008832934201D903234DE02A4B9B6803F090
:103910000C027B685B689B009A42EBD1244B1B68CE
:1039200003F00F023B689A420CD9214B3A68D2B29D
:103930001A701F4B1B6803F00F023B689A4201D0BC
:10394000012330E07B681B6803F00403002B08D0E0
:103950001849184B9B6823F4E0527B68DB681343DB
:103960008B607B681B6803F00803002B09D01149AA
:10397000104B9B6823F460427B681B69DB00134398
:103980008B6000F051F801460A4B9B681B0903F05D
:103990000F03094AD35C21FA03F3084A136000209D
:1039A000FDF772FA002318461037BD4680BD00BFF0
:1039B000003C024000380240B88000081C00002093
:1039C00080B400AF034B1B681846BD465DF8047B0E
:1039D000704700BF1C00002080B500AFFFF7F0FF6C
:1039E0000146054B9B689B0A03F00703034AD35C1F
:1039F00021FA03F3184680BD00380240C880000851
:103A000080B500AFFFF7DCFF0146054B9B685B0B01
:103A100003F00703034AD35C21FA03F3184680BD81
:103A200000380240C88000082DE9F04FA1B000AF77
:103A300000237B670023FB6700233B670023FB66B3
:103A40000023BB67A04B9B6803F00C030C2B00F218
:103A5000938101A252F823F08D3A0008793D0008C5
:103A6000793D0008793D0008933A0008793D000847
:103A7000793D0008793D0008993A0008793D000831
:103A8000793D0008793D0008153C00088F4BBB6765
:103A900075E18F4BBB6772E18B4B5B6803F03F03B3
:103AA0007B67894B5B6803F48003002B56D0864B01
:103AB0005B689B094FF0000440F2FF114FF00002D9
:103AC00001EA030102EA04020B461446600178662B
:103AD000786E40EAD36078665B013B66D7E91834BC
:103AE0005B1A64EB0204A001F865F86D40EA93608C
:103AF000F8659801B865D7E91656ED1A66EB040625
:103B00003346DB007B657B6D284643EA50737B655B
:103B10002B46DB003B65D7E914341D4626466B185F
:103B200046EB0204184621460B465B02FB64FB6C25
:103B3000024643EAD253FB6403465B02BB64D7E907
:103B40001234184621467B6F4FF000041A46234674
:103B5000FCF7F0FF03460C46FB674DE05A4B5B68F1
:103B60009B094FF0000440F2FF114FF0000201EA00
:103B7000030102EA04020B46144660017864786C83
:103B800040EAD36078645B013B64D7E910345B1A88
:103B900064EB02044FEA841B4BEA936B4FEA831AEF
:103BA000BAEB030A6BEB040B4FEACB03FB63FB6B33
:103BB00043EA5A73FB634FEACA03BB63D7E90EAB10
:103BC0001AEB010A4BEB020B4FEA8B237B637B6BF7
:103BD00043EA9A537B634FEA8A233B63D7E90CABF2
:103BE000504659467B6F4FF000041A462346FCF7B7
:103BF000A1FF03460C46FB67334B5B681B0C03F0CD
:103C0000030301335B003B67FA6F3B6FB2FBF3F3D7
:103C1000BB67B4E02C4B5B6803F03F037B672A4B28
:103C20005B6803F48003002B54D0274B5B689B092F
:103C30004FF0000440F2FF114FF0000201EA0301CF
:103C400002EA04020B4614466001F862F86A40EA90
:103C5000D360F8625B01BB62D7E90A345B1A64EB9C
:103C600002044FEA841949EA93694FEA8318B8EBD2
:103C7000030869EB04094FEAC9037B627B6A43EAE4
:103C800058737B624FEAC8033B62D7E9088918EB97
:103C9000010849EB02094FEA4923FB61FB6943EA4A
:103CA000D853FB614FEA4823BB61D7E906894046F8
:103CB00049467B6F4FF000041A462346FCF73AFF53
:103CC00003460C46FB674BE0003802400024F4003A
:103CD00000127A002D4B5B689B094FF0000440F204
:103CE000FF114FF0000201EA030102EA04020B4651
:103CF000144660017861786940EAD36078615B01BD
:103D00003B61D7E904345B1A64EB0204A60146EA7E
:103D100093669D01ED1A66EB0406F300FB60FB68F9
:103D200043EA5573FB60EB00BB60D7E902566D18A0
:103D300046EB0206B3027B607B6843EA95537B60E7
:103D4000AB023B6097E86000284631467B6F4FF03E
:103D500000041A462346FCF7EDFE03460C46FB67BB
:103D60000A4B5B681B0F03F00703FB66FA6FFB6EE1
:103D7000B2FBF3F3BB6702E0054BBB6700BFBB6F51
:103D800018468437BD46BDE8F08F00BF00380240BA
:103D90000024F40080B586B000AF786000233B615A
:103DA0007B681B6803F00103002B00F08380954BB8
:103DB0009B6803F00C03042B19D0924B9B6803F013
:103DC0000C03082B06D18F4B5B6803F48003B3F51B
:103DD000800F0CD08B4B9B6803F00C030C2B12D183
:103DE000884B5B6803F48003B3F5800F0BD1854BE0
:103DF0001B6803F40033002B5BD07B685B68002BEF
:103E000057D1012316E27B685B68B3F5803F06D18A
:103E10007C4A7C4B1B6843F4803313601DE07B6855
:103E20005B68B3F5A02F0CD1764A764B1B6843F440
:103E300080231360734A734B1B6843F48033136011
:103E40000BE0704A6F4B1B6823F4803313606D4A9C
:103E50006C4B1B6823F4802313607B685B68002B2A
:103E600013D0FDF755F8386108E0FDF751F8024628
:103E70003B69D31A642B01D90323DBE1614B1B6837
:103E800003F40033002BF0D014E0FDF741F8386163
:103E900008E0FDF73DF802463B69D31A642B01D9CF
:103EA0000323C7E1574B1B6803F40033002BF0D109
:103EB00000E000BF7B681B6803F00203002B6FD09B
:103EC000504B9B6803F00C03002B17D04D4B9B68A5
:103ED00003F00C03082B05D14A4B5B6803F4800305
:103EE000002B0BD0474B9B6803F00C030C2B1CD111
:103EF000444B5B6803F48003002B16D1414B1B68D5
:103F000003F00203002B05D07B68DB68012B01D096
:103F100001238FE13B493B4B1B6823F0F8027B6890
:103F20001B69DB0013430B603AE07B68DB68002B06
:103F300020D0354B01221A60FCF7EAFF386108E017
:103F4000FCF7E6FF02463B69D31A022B01D9032393
:103F500070E12C4B1B6803F00203002BF0D02949C1
:103F6000284B1B6823F0F8027B681B69DB001343B6
:103F70000B6015E0244B00221A60FCF7C9FF386182
:103F800008E0FCF7C5FF02463B69D31A022B01D9B2
:103F900003234FE11B4B1B6803F00203002BF0D1FE
:103FA0007B681B6803F00803002B37D07B685B69D4
:103FB000002B16D0154B01221A60FCF7A9FF3861BF
:103FC00008E0FCF7A5FF02463B69D31A022B01D992
:103FD00003232FE10B4B5B6F03F00203002BF0D0A8
:103FE0001CE00A4B00221A60FCF792FF38610FE0D8
:103FF000FCF78EFF02463B69D31A022B08D9032334
:1040000018E100BF0038024000004742800E4742DE
:104010008A4B5B6F03F00203002BE9D17B681B68BE
:1040200003F00403002B00F097800023FB75834B03
:104030001B6C03F08053002B0FD10023FB607F4AE1
:104040007E4B1B6C43F0805313647C4B1B6C03F062
:104050008053FB60FB680123FB75794B1B6803F4FD
:104060008073002B18D1764A754B1B6843F480731C
:104070001360FCF74DFF386108E0FCF749FF02468A
:104080003B69D31A022B01D90323D3E06C4B1B6885
:1040900003F48073002BF0D07B689B68012B06D162
:1040A000664A664B1B6F43F0010313671CE07B6895
:1040B0009B68052B0CD1614A604B1B6F43F00403D6
:1040C00013675E4A5D4B1B6F43F0010313670BE000
:1040D0005A4A5A4B1B6F23F001031367574A574B39
:1040E0001B6F23F0040313677B689B68002B15D0BC
:1040F000FCF70EFF38610AE0FCF70AFF02463B6955
:10410000D31A41F28832934201D9032392E04B4BF8
:104110001B6F03F00203002BEED014E0FCF7F8FE57
:1041200038610AE0FCF7F4FE02463B69D31A41F21B
:104130008832934201D903237CE0404B1B6F03F08C
:104140000203002BEED1FB7D012B05D13B4A3B4BFB
:104150001B6C23F0805313647B689B69002B68D031
:10416000364B9B6803F00C03082B60D07B689B697F
:10417000022B45D1334B00221A60FCF7C9FE38618F
:1041800008E0FCF7C5FE02463B69D31A022B01D9B1
:1041900003234FE0294B1B6803F00073002BF0D181
:1041A00026497B68DA697B681B6A1A437B685B6A0D
:1041B0009B011A437B689B6A5B08013B1B041A4303
:1041C0007B68DB6A1B061A437B681B6B1B07134368
:1041D0004B601C4B01221A60FCF79AFE386108E024
:1041E000FCF796FE02463B69D31A022B01D9032342
:1041F00020E0124B1B6803F00073002BF0D018E096
:10420000104B00221A60FCF783FE386108E0FCF7CF
:104210007FFE02463B69D31A022B01D9032309E032
:10422000064B1B6803F00073002BF0D101E0012363
:1042300000E0002318461837BD4680BD0038024014
:10424000007000406000474280B582B000AF7860E7
:104250007B68002B01D101231DE07B6893F8393086
:10426000DBB2002B06D17B68002283F83820786807
:1042700003F026F87B68022283F839207B681A68ED
:104280007B6804331946104600F07EFC7B680122EF
:1042900083F83920002318460837BD4680BD80B416
:1042A00083B000AF78607B681B687A681268D26858
:1042B00042F00102DA607B681B687A681268126853
:1042C00042F001021A60002318460C37BD465DF823
:1042D000047B704780B582B000AF78607B68002BAC
:1042E00001D101231DE07B6893F83930DBB2002B4C
:1042F00006D17B68002283F83820786800F015F832
:104300007B68022283F839207B681A687B68043353
:104310001946104600F038FC7B68012283F83920EA
:10432000002318460837BD4680BD80B483B000AF77
:10433000786000BF0C37BD465DF8047B7047000015
:1043400080B582B000AF786039607B681B6801225D
:104350003968184600F0B6FD7B681B68104A934226
:1043600004D07B681B680F4A934201D1012300E00F
:104370000023002B07D07B681B687A681268526C98
:1043800042F400425A647B681B687A6812681268BB
:1043900042F001021A60002318460837BD4680BD6E
:1043A000000001400004014080B582B000AF786099
:1043B0007B68002B01D101231DE07B6893F8393025
:1043C000DBB2002B06D17B68002283F838207868A6
:1043D00000F015F87B68022283F839207B681A68A0
:1043E0007B6804331946104600F0CEFB7B6801223F
:1043F00083F83920002318460837BD4680BD80B4B5
:1044000083B000AF786000BF0C37BD465DF8047B19
:104410007047000080B582B000AF786039603B68BB
:104420000C2B41D801A252F823F000BF61440008D0
:10443000A9440008A9440008A944000873440008DE
:10444000A9440008A9440008A944000885440008BC
:10445000A9440008A9440008A9440008974400089A
:104460007B681B687A681268D26842F00202DA60E0
:104470001BE07B681B687A681268D26842F004020D
:10448000DA6012E07B681B687A681268D26842F0D2
:104490000802DA6009E07B681B687A681268D268F3
:1044A00042F01002DA6000E000BF7B681B68012266
:1044B0003968184600F006FD7B681B687A68126848
:1044C000126842F001021A60002318460837BD4600
:1044D00080BD00BF80B582B000AF78607B681B688C
:1044E0001B6903F00203022B22D17B681B68DB6887
:1044F00003F00203022B1BD17B681B686FF00202E2
:104500001A617B6801221A767B681B689B6903F03D
:104510000303002B03D0786802F08EF905E0786879
:1045200000F01DFB786802F05BFA7B6800221A76C7
:104530007B681B681B6903F00403042B22D17B6892
:104540001B68DB6803F00403042B1BD17B681B682A
:104550006FF004021A617B6802221A767B681B687E
:104560009B6903F44073002B03D0786802F064F970
:1045700005E0786800F0F3FA786802F031FA7B68B9
:1045800000221A767B681B681B6903F00803082B5E
:1045900022D17B681B68DB6803F00803082B1BD162
:1045A0007B681B686FF008021A617B6804221A7628
:1045B0007B681B68DB6903F00303002B03D078687A
:1045C00002F03AF905E0786800F0C9FA786802F07C
:1045D00007FA7B6800221A767B681B681B6903F068
:1045E0001003102B22D17B681B68DB6803F01003DB
:1045F000102B1BD17B681B686FF010021A617B685F
:1046000008221A767B681B68DB6903F44073002B71
:1046100003D0786802F010F905E0786800F09FFA9E
:10462000786802F0DDF97B6800221A767B681B68E7
:104630001B6903F00103012B0ED17B681B68DB684B
:1046400003F00103012B07D17B681B686FF00102A7
:104650001A61786802F0D0F87B681B681B6903F068
:104660008003802B0ED17B681B68DB6803F080031E
:10467000802B07D17B681B686FF080021A61786815
:1046800000F04AFF7B681B681B6903F04003402B66
:104690000ED17B681B68DB6803F04003402B07D119
:1046A0007B681B686FF040021A61786800F061FA5D
:1046B0007B681B681B6903F02003202B0ED17B68ED
:1046C0001B68DB6803F02003202B07D17B681B6885
:1046D0006FF020021A61786800F014FF00BF0837FD
:1046E000BD4680BD80B584B000AFF860B9607A6027
:1046F000FB6893F83830012B01D102238AE0FB6874
:10470000012283F83820FB68022283F839207B6875
:10471000002B1BD1FB681868BB681968BB685A6816
:10472000BB68DB6800F0DAFAFB681B68FA6812689D
:10473000926922F00C029A61FB681B68FA681268A1
:104740009169BA6892680A439A615AE07B68042BBF
:104750001CD1FB681868BB681968BB685A68BB68DD
:10476000DB6800F052FDFB681B68FA68126892690A
:1047700022F440629A61FB681B68FA6812689169CA
:10478000BA68926812020A439A613AE07B68082B81
:104790001BD1FB681868BB681968BB685A68BB689E
:1047A000DB6800F0A7FDFB681B68FA681268D26935
:1047B00022F00C02DA61FB681B68FA681268D169A2
:1047C000BA6892680A43DA611BE0FB681868BB6844
:1047D0001968BB685A68BB68DB6800F0CBFDFB68F2
:1047E0001B68FA681268D26922F44062DA61FB68D9
:1047F0001B68FA681268D169BA68926812020A43A3
:10480000DA61FB68012283F83920FB68002283F813
:104810003820002318461037BD4680BD80B584B0CF
:1048200000AFF860B9607A60FB6893F83830012B0C
:1048300001D10223B4E0FB68012283F83820FB6831
:10484000022283F839207B680C2B00F29F8001A2A2
:1048500052F823F0894800088D4900088D49000866
:104860008D490008C94800088D4900088D49000895
:104870008D4900080B4900088D4900088D49000842
:104880008D4900084B490008FB681B68B968184649
:1048900000F03CFBFB681B68FA681268926942F002
:1048A00008029A61FB681B68FA681268926922F034
:1048B00004029A61FB681B68FA6812689169BA6819
:1048C00012690A439A6162E0FB681B68B96818467E
:1048D00000F080FAFB681B68FA681268926942F47B
:1048E00000629A61FB681B68FA681268926922F498
:1048F00080629A61FB681B68FA6812689169BA68FD
:10490000126912020A439A6141E0FB681B68B968A8
:10491000184600F06FFBFB681B68FA681268D269E2
:1049200042F00802DA61FB681B68FA681268D26913
:1049300022F00402DA61FB681B68FA681268D16928
:10494000BA6812690A43DA6121E0FB681B68B9683A
:10495000184600F0C7FBFB681B68FA681268D2694A
:1049600042F40062DA61FB681B68FA681268D26977
:1049700022F48062DA61FB681B68FA681268D16908
:10498000BA68126912020A43DA6100E000BFFB68EC
:10499000012283F83920FB68002283F838200023A5
:1049A00018461037BD4680BD80B584B000AF786032
:1049B00039600023FB607B6893F83830012B01D10C
:1049C0000223C8E07B68012283F838207B6802223A
:1049D00083F839207B681B689B68FB60FB6823F0C9
:1049E0007703FB60FB6823F47F43FB607B681B68F5
:1049F000FA689A603B681B68402B77D0402B0ED832
:104A0000102B00F08A80102B02D8002B7ED099E06A
:104A1000202B00F08980302B00F08D8092E0702BED
:104A200016D0702B04D8502B40D0602B4ED089E08C
:104A3000B3F5805F03D0B3F5005F24D082E07B68DC
:104A40001B687A681268926822F007029A6079E01F
:104A50007B6818683B6899683B685A683B68DB6804
:104A600000F0E9FC7B681B689B68FB60FB6823F037
:104A70007703FB60FB6843F07703FB607B681B6890
:104A8000FA689A605EE07B6818683B6899683B68E2
:104A90005A683B68DB6800F0CEFC7B681B687A686C
:104AA0001268926842F480429A604BE07B68186812
:104AB0003B6859683B68DB681A4600F073FB7B680B
:104AC0001B685021184600F096FC3BE07B68186894
:104AD0003B6859683B68DB681A4600F0D7FB7B6887
:104AE0001B686021184600F086FC2BE07B68186884
:104AF0003B6859683B68DB681A4600F053FB7B68EB
:104B00001B684021184600F076FC1BE07B681B68A0
:104B10000021184600F06FFC14E07B681B68102130
:104B2000184600F068FC0DE07B681B6820211846E1
:104B300000F061FC06E07B681B683021184600F03D
:104B40005AFC00BF7B68012283F839207B68002271
:104B500083F83820002318461037BD4680BD80B446
:104B600083B000AF786000BF0C37BD465DF8047BB2
:104B7000704780B483B000AF786000BF0C37BD468B
:104B80005DF8047B7047000080B485B000AF7860AA
:104B900039600023FB607B681B68FB607B68444ACC
:104BA000934213D07B68B3F1804F0FD07B68414AAA
:104BB00093420BD07B68404A934207D07B683F4AC0
:104BC000934203D07B683E4A934201D1012300E027
:104BD0000023002B08D0FB6823F07003FB603B68C8
:104BE0005B68FA681343FB607B68314A93422BD0C1
:104BF0007B68B3F1804F27D07B682E4A934223D045
:104C00007B682D4A93421FD07B682C4A93421BD06D
:104C10007B682B4A934217D07B682A4A934213D071
:104C20007B68294A93420FD07B68284A93420BD075
:104C30007B68274A934207D07B68264A934203D079
:104C40007B68254A934201D1012300E00023002B19
:104C500008D0FB6823F44073FB603B68DB68FA68AC
:104C60001343FB607B68FA681A603B689A687B684C
:104C7000DA623B681A687B689A627B680C4A9342E6
:104C800003D07B680E4A934201D1012300E0002348
:104C9000002B03D03B681A697B681A637B6801228A
:104CA0005A6100BF1437BD465DF8047B704700BFF2
:104CB000000001400004004000080040000C0040DB
:104CC0000004014000400140004401400048014010
:104CD00000180040001C00400020004080B487B055
:104CE00000AFF860B9607A603B6000237B6100230D
:104CF0003B61FB681B6A23F00102FB681A62FB68D8
:104D00009B697B61FB681B6A3B61FB682A4A934293
:104D10001BD0FB68B3F1804F17D0FB68274A934242
:104D200013D0FB68264A93420FD0FB68254A934272
:104D30000BD0FB68244A934207D0FB68234A934276
:104D400003D0FB68224A934201D1012300E00023F3
:104D5000002B08D07B6923F003037B617A697B68B1
:104D600013437B6107E07B6923F003037B617B696D
:104D700043F001037B617B6923F0F0037B613B68B7
:104D80001B01DBB27A6913437B613B6923F00A03A1
:104D90003B61BB6803F00A033A6913433B61FB685C
:104DA0007A699A61FB683A691A6200BF1C37BD468E
:104DB0005DF8047B704700BF000001400004004024
:104DC00000080040000C0040000401400040014089
:104DD0000018004080B487B000AF786039600023CD
:104DE000FB6000237B6100233B617B681B6A23F02F
:104DF00010027B681A627B681B6A7B617B685B6858
:104E00003B617B689B69FB60FB6823F4E043FB60CC
:104E1000FB6823F44073FB603B681B681B02FA6865
:104E20001343FB607B6923F020037B613B689B6835
:104E30001B017A6913437B617B68204A934203D04C
:104E40007B681F4A934201D1012300E00023002B1D
:104E500021D07B6923F080037B613B68DB681B0109
:104E60007A6913437B617B6923F040037B613B6973
:104E700023F480633B613B6923F400633B613B683F
:104E80005B699B003A6913433B613B689B699B00EC
:104E90003A6913433B617B683A695A607B68FA68F8
:104EA0009A613B685A687B689A637B687A691A6280
:104EB00000BF1C37BD465DF8047B70470000014011
:104EC0000004014080B487B000AFF860B9607A6038
:104ED00000237B610122BB6802FA03F37B61FB685C
:104EE0001A6A7B69DB431A40FB681A62FB681A6A1C
:104EF0007968BB6801FA03F31A43FB681A6200BFC2
:104F00001C37BD465DF8047B7047000080B487B055
:104F100000AF786039600023FB6000237B610023D1
:104F20003B617B681B6A23F001027B681A627B6825
:104F30001B6A7B617B685B683B617B689B69FB608C
:104F4000FB6823F07003FB60FB6823F00303FB6046
:104F50003B681B68FA681343FB607B6923F002031C
:104F60007B613B689B687A6913437B617B681F4A5E
:104F7000934203D07B681E4A934201D1012300E093
:104F80000023002B1ED07B6923F008037B613B6864
:104F9000DB687A6913437B617B6923F004037B61DF
:104FA0003B6923F480733B613B6923F400733B61ED
:104FB0003B685B693A6913433B613B689B693A69AB
:104FC00013433B617B683A695A607B68FA689A616F
:104FD0003B685A687B685A637B687A691A6200BFCB
:104FE0001C37BD465DF8047B704700BF00000140E0
:104FF0000004014080B487B000AF786039600023BE
:10500000FB6000237B6100233B617B681B6A23F408
:1050100080727B681A627B681B6A7B617B685B6855
:105020003B617B68DB69FB60FB6823F07003FB601E
:10503000FB6823F00303FB603B681B68FA681343BB
:10504000FB607B6923F400737B613B689B681B02F8
:105050007A6913437B617B68204A934203D07B6863
:105060001F4A934201D1012300E00023002B21D0ED
:105070007B6923F400637B613B68DB681B027A6910
:1050800013437B617B6923F480637B613B6923F479
:1050900080533B613B6923F400533B613B685B6990
:1050A0001B013A6913433B613B689B691B013A69E9
:1050B00013433B617B683A695A607B68FA68DA613E
:1050C0003B685A687B68DA637B687A691A6200BF5A
:1050D0001C37BD465DF8047B704700BF00000140EF
:1050E0000004014080B487B000AF786039600023CD
:1050F0003B610023FB6000237B617B681B6A23F418
:1051000080527B681A627B681B6AFB607B685B6805
:105110007B617B68DB693B613B6923F4E0433B6176
:105120003B6923F440733B613B681B681B023A698F
:1051300013433B61FB6823F40053FB603B689B68AF
:105140001B03FA681343FB607B68144A934203D045
:105150007B68134A934201D1012300E00023002B16
:1051600009D07B6923F480437B613B685B699B01C9
:105170007A6913437B617B687A695A607B683A6914
:10518000DA613B685A687B681A647B68FA681A625D
:1051900000BF1C37BD465DF8047B7047000001402E
:1051A0000004014080B487B000AFF860B9607A6055
:1051B00000237B6100233B61FB681B6A3B61FB684A
:1051C0001B6A23F00102FB681A62FB689B697B6122
:1051D0007B6923F0F0037B617B681B017A691343D1
:1051E0007B613B6923F00A033B613A69BB68134367
:1051F0003B61FB687A699A61FB683A691A6200BF91
:105200001C37BD465DF8047B704780B487B000AFA3
:10521000F860B9607A603B6000237B6100233B61EA
:10522000FB681B6A23F01002FB681A62FB689B692B
:105230007B61FB681B6A3B617B6923F440737B6184
:105240007B681B027A6913437B617B6923F470439B
:105250007B613B681B039BB27A6913437B613B69AB
:1052600023F0A0033B61BB681B0103F0A0033A6974
:1052700013433B61FB687A699A61FB683A691A6279
:1052800000BF1C37BD465DF8047B704780B487B013
:1052900000AFF860B9607A6000237B6100233B6156
:1052A000FB681B6A23F01002FB681A62FB689B69AB
:1052B0007B61FB681B6A3B617B6923F470437B6104
:1052C0007B681B037A6913437B613B6923F0A0036E
:1052D0003B61BB681B013A6913433B61FB687A6918
:1052E0009A61FB683A691A6200BF1C37BD465DF8D7
:1052F000047B704780B487B000AFF860B9607A6013
:105300003B6000237B6100233B61FB681B6A23F445
:105310008072FB681A62FB68DB697B61FB681B6A51
:105320003B617B6923F003037B617A697B681343EC
:105330007B617B6923F0F0037B613B681B01DBB27F
:105340007A6913437B613B6923F420633B61BB684B
:105350001B0203F420633A6913433B61FB687A69DB
:10536000DA61FB683A691A6200BF1C37BD465DF816
:10537000047B704780B487B000AFF860B9607A6092
:105380003B6000237B6100233B61FB681B6A23F4C5
:105390008052FB681A62FB68DB697B61FB681B6AF1
:1053A0003B617B6923F440737B617B681B027A69F4
:1053B00013437B617B6923F470437B613B681B0370
:1053C0009BB27A6913437B613B6923F420433B61C1
:1053D000BB681B0303F420433A6913433B61FB683A
:1053E0007A69DA61FB683A691A6200BF1C37BD4608
:1053F0005DF8047B704780B485B000AF78600B46E1
:105400007B800023FB607B689B68FB60FB6823F06C
:105410007003FB607B8843F007039BB21A46FB686E
:105420001343FB607B68FA689A6000BF1437BD467F
:105430005DF8047B704780B487B000AFF860B96056
:105440007A603B6000237B61FB689B687B617B69C2
:1054500023F47F437B613B681A027B681A43BB6875
:1054600013437A6913437B61FB687A699A6000BFD2
:105470001C37BD465DF8047B704780B483B000AF35
:10548000786039607B6893F83830012B01D10223B2
:1054900032E07B68012283F838207B68022283F89F
:1054A00039207B681B687A681268526822F07002A3
:1054B0005A607B681B687A68126851683A6812689B
:1054C0000A435A607B681B687A681268926822F007
:1054D00080029A607B681B687A68126891683A68F3
:1054E00052680A439A607B68012283F839207B68FE
:1054F000002283F83820002318460C37BD465DF89B
:10550000047B704780B483B000AF786000BF0C3775
:10551000BD465DF8047B704780B483B000AF78600F
:1055200000BF0C37BD465DF8047B704780B582B084
:1055300000AF78607B68002B01D101233FE07B68DE
:1055400093F83930DBB2002B06D17B68002283F858
:105550003820786801F07AFF7B68242283F83920AC
:105560007B681B687A681268D26822F40052DA609D
:10557000786800F0CFFA7B681B687A681268126955
:1055800022F490421A617B681B687A68126852693B
:1055900022F02A025A617B681B687A681268D26816
:1055A00042F40052DA607B680022DA637B682022D2
:1055B00083F839207B68202283F83A20002318469C
:1055C0000837BD4680BD80B485B000AFF860B960D3
:1055D0001346FB80FB6893F83930DBB2202B30D1C7
:1055E000BB68002B02D0FB88002B01D1012329E0EE
:1055F000FB6893F83830012B01D1022322E0FB68CD
:10560000012283F83820FB68BA681A62FB68FA88BE
:105610009A84FB68FA88DA84FB680022DA63FB6804
:10562000212283F83920FB68002283F83820FB68A8
:105630001B68FA681268D26842F08002DA600023C0
:1056400000E0022318461437BD465DF8047B70471E
:1056500080B485B000AFF860B9601346FB80FB688A
:1056600093F83A30DBB2202B38D1BB68002B02D044
:10567000FB88002B01D1012331E0FB6893F838301F
:10568000012B01D102232AE0FB68012283F8382094
:10569000FB68BA689A62FB68FA889A85FB68FA88A0
:1056A000DA85FB680022DA63FB68222283F83A205D
:1056B000FB68002283F83820FB681B68FA681268D0
:1056C000526942F001025A61FB681B68FA6812686D
:1056D000D26842F49072DA60002300E00223184698
:1056E0001437BD465DF8047B7047000080B588B074
:1056F00000AF78607B681B681B68FB617B681B6878
:10570000DB68BB617B681B685B697B6100233B6175
:105710000023FB60FB6903F00F033B613B69002B37
:105720000DD1FB6903F02003002B08D0BB6903F007
:105730002003002B03D0786800F073F9CCE03B69BC
:10574000002B00F0AB807B6903F00103002B05D137
:10575000BB6903F49073002B00F0A080FB6903F099
:105760000103002B0AD0BB6903F48073002B05D022
:105770007B68DB6B43F001027B68DA63FB6903F053
:105780000403002B0AD07B6903F00103002B05D032
:105790007B68DB6B43F002027B68DA63FB6903F032
:1057A0000203002B0AD07B6903F00103002B05D014
:1057B0007B68DB6B43F004027B68DA63FB6903F010
:1057C0000803002B0AD07B6903F00103002B05D0EE
:1057D0007B68DB6B43F008027B68DA637B68DB6B1A
:1057E000002B78D0FB6903F02003002B07D0BB69A6
:1057F00003F02003002B02D0786800F012F97B68D8
:105800001B685B6903F04003002B14BF01230023D6
:10581000DBB2FB607B68DB6B03F00803002B02D17B
:10582000FB68002B31D0786800F05CF87B681B685F
:105830005B6903F04003002B23D07B681B687A6808
:105840001268526922F040025A617B685B6B002B40
:1058500013D07B685B6B224A1A657B685B6B1846CA
:10586000FBF71FFF0346002B16D07B685B6B1B6D9D
:105870007A68526B104698470EE0786800F0A8FFEF
:105880000AE0786800F0A4FF06E0786800F0A0FF66
:105890007B680022DA631EE000BF1CE0FB6903F0B6
:1058A0008003002B08D0BB6903F08003002B03D0DA
:1058B000786800F049F80FE0FB6903F04003002B23
:1058C0000AD0BB6903F04003002B05D0786800F0D4
:1058D00090F800BF00E000BF2037BD4680BD00BF8C
:1058E0002159000880B483B000AF78607B681B68E2
:1058F0007A681268D26822F49072DA607B681B685A
:105900007A681268526922F001025A617B6820228B
:1059100083F83A2000BF0C37BD465DF8047B704722
:1059200080B584B000AF78607B689B6BFB60FB68E0
:105930000022DA85FB680022DA84F86800F048FF6C
:1059400000BF1037BD4680BD80B485B000AF786021
:105950007B6893F83930DBB2212B43D17B689B689D
:10596000B3F5805F19D17B681B6AFB607B681B689D
:10597000FA681288C2F308025A607B681B69002B20
:1059800005D17B681B6A9A1C7B681A620EE07B68F3
:105990001B6A5A1C7B681A6208E07B681A687B687D
:1059A0001B6A581C796808621B7853607B68DB8C23
:1059B0009BB2013B9BB27A681946D184002B0FD170
:1059C0007B681B687A681268D26822F08002DA600D
:1059D0007B681B687A681268D26842F04002DA601D
:1059E000002300E0022318461437BD465DF8047B0F
:1059F000704780B582B000AF78607B681B687A68BA
:105A00001268D26822F04002DA607B68202283F8B4
:105A10003920786800F0CCFE002318460837BD46D0
:105A200080BD80B584B000AF78607B6893F83A3071
:105A3000DBB2222B69D17B689B68B3F5805F23D1F1
:105A40007B689B6AFB607B681B69002B0ED17B68BF
:105A50001B685B689BB2C3F308039AB2FB681A80A9
:105A60007B689B6A9A1C7B689A6229E07B681B684A
:105A70005B689BB2DBB29AB2FB681A807B689B6A58
:105A80005A1C7B689A621BE07B681B69002B0AD159
:105A90007B689B6A591C7A6891627A6812685268BE
:105AA000D2B21A700CE07B689B6A591C7A689162CA
:105AB0007A6812685268D2B202F07F02D2B21A70CB
:105AC0007B68DB8D9BB2013B9BB27A681946D1851E
:105AD000002B18D17B681B687A681268D26822F4A0
